:400000000040002011000000710300007103000010B500F0CDF9C04610B512221A4B1A60302000F019FB194A194B1A60C0229200184B1A60184B1949196019490A60194ABB
:400040001A6080210901184A1160184A1A6082221206174B1A608022D202164B1A604122154B1A60013A154B1A600232144B1A601449072000F026FA072000F017FA002286
:40008000114B1A6010BDC046300010400600008004010B40040301400000014041FF00800003014040FF00800803014042FF008008010B4000010B40300101402C01014068
:4000C00028010140AD0700000C020B4010B572B600240FE021486200131959000B00411889881A5AC31858880004104300F002F90134E4B2012CEDD9184801000C311C30AB
:4001000000F0DEF8164A174B1A607622164B1A6099231B04154A1360154A1360D1221206144B1A60144A117806230B43DBB21370124A134B1A60A022124B1A60124A134BF2
:400140001A600323124A13600921124A1160124A1360FFF761FF00F0E3F810BDD41A000000EE3030000302400004024020500F4030500F4038500F4000700F40B66D1B0033
:400180000802044000030440800DC3000803044000040440080404401804044010B5064C2378002B07D1054B002B02D0044800E000BF0123237010BD480100200000000039
:4001C000BC1A0000084B10B5002B03D00749084800E000BF07480368002B00D110BD064B002BFBD09847F9E7000000004C010020BC1A0000C00000200000000010B500F073
:4002000023FC012000F0D4FB10BDC04610B5012000F0CEFB0E4C0F4B220003CB03C20021002000F021FC200000F0B4FB0A4B1B680A4A126814340A49200001F01BF8002151
:40024000012000F011FC200000F0A4FB10BDC04664010020C01A0000900100208C010020C81A000010B500F0F7FC00F005FD00F001FE00F08BFD10BD10B5002000F006FD99
:40028000064C2060012000F001FD6060206800F09DFD606800F026FD10BDC0468C01002010B5FFF7DFFFFFF7A9FF10BD10B562B6FFF7F6FFFFF7E0FFFFF7A8FFFAE7C0460B
:4002C000F0B50025002711E0BB00C658F3B2FF22964308E06A008A181478A419527822700135013BDBB2002BF4D10137002FEBD0F0BDC04610B50A00002100F0B2FF10BDE9
:40030000064B1B68002803D080221206134301E05B005B08014A13607047C04680033A4010B533220B4B1A6003230B4A13600B4A1360802212060A4B1A60C0231B03094A4A
:400340001360094A13600022084B1A600120FFF7D7FF10BD04210240300030403000314000003A4000033A4040033A40000E3F4010B500F041FF03680C2B00D1FEE7FEE780
:4003800010B50300084A1068C318084A9A1A802A02DC054A136005E000F02EFF0C2303600120404210BDC046C4000020E001002070B50F4E0F4D13E029686B68AC68002226
:4003C00002E001C901C30432A242FAD1E868002202E0002102C304328242FAD11035013E002EE9D100F00EFFFFF760FFFEE7C04601000000881B000010B50E4A13680121A2
:400400008B43136000230AE0032B03D89A000A49505800E009489900094A885001332F2BF2D9FFF753FE034A116801230B43136010BDC046000010400000000071030000F9
:400440000000002000230AE00D4A12683F210A400C49C95C8A4201D1033303E001332D2BF2D9032308490868084A02400A60084A944663441B78DBB2064A13607047C046F4
:400480002CFF0B40F41A000000002240FFFFFFBFCDF1FF0F28FF0B40034B18688023DB05184000D001207047000022401F2318401E3B8340014A13607047C04600E100E0B7
:4004C00001BE704770B504000D001F2802D90020FFF7F6FF1034A40080239B059C4664442068256070BDC04670B504000E00032902D90020FFF7E4FF1F2C02D90020FFF7BB
:40050000DFFF03252540ED00063500F0CEFCA408A400074B9C46644421680323AB4099430B003100A9401943216000F0C2FC70BD00E400E010B5040006E0084B586800F079
:40054000ABFC074B9C46644480231B029C42F4D8024B9868604300F09FFC10BDC80000200080FFFF70B582B000F0CAF800285DD000F09BFC050000230AE02D4A12683F2198
:400580000A402C49C95C8A4201D1033303E001332D2BF2D903230021274A1160274A1268D20606D1254802681F318A4313390A430260234C2168234A1140234A5A43802334
:4005C000DB019C466244D20B013A5205520D0B001343A0225203134323601C4B1B680193302000F069FC1A4A13688021C9050B4313602668174B1E40002407E00120FFF7D6
:4006000099FF1034A30533430D4A1360EE2CF5D90120FFF78FFFFF239B051E43084B1E60019A0A4B1A60280000F043FC02B070BD2CFF0B40F41A000028FF0B4034FF0B4061
:400640000800224000F800C040420F003000104000002240FFFF3FC030B587B0040000F024FC0500FFF718FF002803D0FFF7EAFE012100E00021104B1B6800930F4B1B685C
:400680000193033C0E4B1B5D02930E4B1B68039304AA0D4B04936B4605930C4B1A600C480C4A10601B68012901D1FFF75BFF280000F0FFFB07B030BD08010B4000010B4099
:4006C000F41A000030001040B6EA000008001040170000800400104010B5034B1B7B584300F0DAFB10BDC046C8000020034B1868C0231B02184000D00120704700010B40AB
:40070000034B1B68002B01DA012000E0002070470000224010B500F0C8FB044A1368C02109020B43136000F0C4FB10BD00010B4010B500F0BAFB08490A68084B1A40802474
:40074000E40122430A600A6813408022120213430B6000F0AEFB10BD00010B40FF3FFFFF70B5050000F0A1FB0400FFF7BFFF002803D0FFF7DDFF012100E000210848284085
:40078000084A1568084B2B40184310601368012901D1FFF7BFFF200000F08BFB70BDC0460404040010020B40FBFBFBFF10B5244B1B685B0715D5234B5B685B070ED5224BAE
:4007C000596A042001401F4C62688A4362605A6A82435A629B69002B00D098470420FFF7BFFF174B1B685B0518D5164B5B685B0510D5154B596A8022D2001140114842688C
:400800008A434260596A114A0A405A62DB69002B00D098478020C000FFF7A2FF084B1B685B030CD5074B5B685B0304D5064B1B6A002B00D098478020C002FFF791FF10BD4A
:4008400010020B40DC00002094010020FFFBFFFF10B50B4C226860239A4322602268513B9A432260226810230343D8B2104320600120FFF731FF236810229343236010BDEB
:400880000002044070B505000E4C226820231343236023684022934323600020FFF71CFF23680F2293432360226810232B43D8B2104320600120FFF70FFF236810229343FC
:4008C000236070BD00020440F8B5274A13687F218B43136025490B681B0B1B03244803430B60136820218B431360116840230B431360CA277F000020FFF7EEFE1A4C236849
:400900001026334323600120FFF7E6FE194B1D682368B34323600020FFF7DEFE08231D402368334323600120FFF7D6FE2368B3432360002D02D10A20FFF7CEFE013F002D5A
:4009400001D0002FD7D1084B1A6840218A431A601A683F318A431A60044A13681B0B1B0305490B431360F8BD00020440080204404902000004020440B60D000010B5040093
:40098000FFF7A2FF2009FFF77DFF0F202040FFF779FF10BD70B505000078012404E0FFF7EDFF285D0134E4B20028F8D170BDC04610B50400FFF788FF2009FFF749FF0F205E
:4009C0002040FFF745FF10BD10B52820FFF7B2FD0320FFF73DFF0520FFF7ACFD0320FFF737FF0F20FFF7A6FD0320FFF731FF0120FFF7A0FD0220FFF72BFF0520FFF79AFDBD
:400A00000620FFF7D5FF0E20FFF7D2FF2C20FFF7CFFF0820FFF7CCFF0120FFF7C9FF0C20FFF7C6FF0320FFF7C3FF0520FFF782FD10BDC04610B50C20FFF7BAFF0122014BBB
:400A40001A7010BDBC01002010B5064B5B78002B04D1FFF7B9FF0122024B5A70FFF7EAFF10BDC046BC01002010B501280BD0002804D002280CD003280FD012E08039C8B2E8
:400A8000FFF796FF0DE04039C8B2FFF791FF08E06C39C8B2FFF78CFF03E02C39C8B2FFF787FF10BD10B503211020FFF71DFD42491020FFF707FD0322404B1A60404B1B689C
:400AC000002B01DA3F4900E03F49404A13680B4313603F4A3F4B1A603F4A404B1A6000233F4A13603F4A40490A6040490A60404A116880204002014311603E490A680243B9
:400B00000A603D4A13603D4A136001223C4B1A603C4A11683C4B0B40802189050B431360002445E03949A2005058DC239B0103400919097A0B4336498C4662441360C30758
:400B400007D52D490A680123A3401B041B0C13430B60A3002D4A9B589B0707D527490A680123A3401B041B0C13430B60A300274A9B589A0502D58020400001E08020400109
:400B8000DB0504D463000021224A995203E063000021204A9952204B5843204B9C4660441F4900F03DFA00B2A2001E4BD0500134012CB7D910BDC046B90C000020003A405F
:400BC00080033A40702010107020001000003A408C00008004003A400000FF0718003A401C003A400200020010003A4014003A4000033A4040033A4028023A4038023A40C8
:400C000018023A4030003A40FEFFFFDF241B000080003A40D401002010270000E40C0000C8190000CC01002010B5094B1B68002B0CDB084B1B68002BFBDB054A1368802188
:400C400009060B4313600A20FFF746FD10BDC04600003A4008023A4010B5064B1B78002B04D1FFF71FFF0122024B1A70FFF7DCFF10BDC046BE010020034A13688021490282
:400C80000B4313607047C04604003A4010B50400012802D90020FFF713FC012C07D8A400044B9C46644420680004000C00E0002000B210BD80013A40014B1A681A607047AC
:400CC00010023A400004000C014B18607047C046480120400004000C014B18607047C046540120400004000C014B18607047C0464C01204070B504000D0000F0D6F8AC40CA
:400D0000024B1C6000F0D5F870BDC0460800204010B500F0CAF8064A116802230B43136000F0C7F818210220FFF7E4FF10BDC04600002040014B18607047C04678012040FC
:400D400010B50E4C8023DB042360236823600020FFF7B8FF236823600C22094B1A600120FFF7E8FF3122074B1A600748FFF7B2FFFA208000FFF7B6FF10BDC046400120409E
:400D800064012040680120400208000010B5064B1B78002B04D1FFF7D3FF0122024B1A70FFF7B6FF10BDC046BF0100200004000C014B18607047C046080120400004000CC8
:400DC000014B18607047C046140120400004000C014B18607047C0460C01204070B504000D0000F062F8AC40024B1C6000F061F870BDC0460800204010B500F056F8064A93
:400E0000116801230B43136000F053F818210120FFF7E4FF10BDC04600002040014B18607047C0463801204010B50E4C8023DB042360236823600020FFF7B8FF236823608C
:400E40000C22094B1A600120FFF7E8FF3122074B1A600748FFF7B2FFFA208000FFF7B6FF10BDC0460001204024012040280120400208000010B5064B1B78002B04D1FFF733
:400E8000D3FF0122024B1A70FFF7B6FF10BDC046C0010020000000000230800803D00138FDD1C046C046C0467047EFF3108072B6704780F31088704770B50400FFF7F5FF84
:400EC0000500102C05D8104A136803218B43136016E0202C07D80C490B6803229343023A13430B600CE0302C07D807490B6803229343013A13430B6002E00020FFF7E0FA06
:400F00002800FFF7D6FF70BD30001040002243088B4274D303098B425FD3030A8B4244D3030B8B4228D3030C8B420DD3FF22090212BA030C8B4202D31212090265D0030BE7
:400F40008B4219D300E0090AC30B8B4201D3CB03C01A5241830B8B4201D38B03C01A5241430B8B4201D34B03C01A5241030B8B4201D30B03C01A5241C30A8B4201D3CB02E2
:400F8000C01A5241830A8B4201D38B02C01A5241430A8B4201D34B02C01A5241030A8B4201D30B02C01A5241CDD2C3098B4201D3CB01C01A524183098B4201D38B01C01AF4
:400FC000524143098B4201D34B01C01A524103098B4201D30B01C01A5241C3088B4201D3CB00C01A524183088B4201D38B00C01A524143088B4201D34B00C01A5241411ACB
:4010000000D20146524110467047FFE701B5002000F0F0F802BDC0460029F7D076E7704703460B437FD4002243088B4274D303098B425FD3030A8B4244D3030B8B4228D35D
:40104000030C8B420DD3FF22090212BA030C8B4202D31212090265D0030B8B4219D300E0090AC30B8B4201D3CB03C01A5241830B8B4201D38B03C01A5241430B8B4201D32A
:401080004B03C01A5241030B8B4201D30B03C01A5241C30A8B4201D3CB02C01A5241830A8B4201D38B02C01A5241430A8B4201D34B02C01A5241030A8B4201D30B02C01A3E
:4010C0005241CDD2C3098B4201D3CB01C01A524183098B4201D38B01C01A524143098B4201D34B01C01A524103098B4201D30B01C01A5241C3088B4201D3CB00C01A524182
:4011000083088B4201D38B00C01A524143088B4201D34B00C01A5241411A00D201465241104670475DE0CA0F00D04942031000D34042534000229C4603098B422DD3030A7D
:401140008B4212D3FC22890112BA030A8B420CD3890192118B4208D3890192118B4204D389013AD0921100E08909C3098B4201D3CB01C01A524183098B4201D38B01C01A08
:40118000524143098B4201D34B01C01A524103098B4201D30B01C01A5241C3088B4201D3CB00C01A524183088B4201D38B00C01A5241D9D243088B4201D34B00C01A5241B9
:4011C000411A00D20146634652415B10104601D34042002B00D54942704763465B1000D3404201B5002000F005F802BD0029F8D016E770477047C046014B18687047C04610
:40120000440100200E4B70B500251E000D4CE41AA410A54204D0AB00F35898470135F8E700F0A0FC084B00251E00084CE41AA410A54204D0AB00F35898470135F8E770BDDE
:40124000701B0000701B0000701B0000781B0000002310B59A4203D0CC5CC4540133F9E710BD03008218934202D019700133FAE7704700000EB410B59DB002A9029008616F
:401280000B48822488604861012040421FABC881084804CBA400006801938C8100F06EF80023029A13701DB010BC08BC03B01847FFFFFF7F44010020F0B58E6885B0070063
:4012C0000C00039201939E4243D890238A89DB001A423ED003250969236801985B1A029363695D43EB0F5D19029B6D1001331B18AB4200D91D00530510D52900380000F01D
:4013000037FB061E14D0029A2169FFF7A1FFA289194B134080221343A38112E02A00380000F086FB061E0CD12169380000F0D4FA0C23402201203B60A38940421343A381FE
:4013400017E0029B2661F61826606561019EED1AA560019BB34200D21E0032000399206800F0A5FA0020A3689B1BA36023689E19266005B0F0BDC0467FFBFFFFF0B59FB067
:40138000029005938B890F0016001B0610D50B69002B0DD1402100F0EBFA38603861002804D10C23029A01381360D8E040237B61002306AD6B6120336B761033AB76340007
:4013C0002378002B03D1A31B049312D003E0252BF9D00134F4E7A31B320039000298FFF76BFF431C00D1B4E06A69049B944663446B612378002B00D1ABE00122002352426E
:401400006A6002A95432521801342B60EB60AB601370AB65534E21780522300000F03CFA002807D00123801B83402A68013413432B60EFE72B68DA0604D55322202102A83C
:40144000121811701A0704D553222B2102A81218117022782A2A03D0099B00200A210EE0059A111D12680591002A01DB099204E05242EA60022213432B6001340BE0227814
:40148000303A092A04D84B4301349B180120F6E7002800D0099323782E2B1ED163782A2B0AD1059B02341A1D1B680592002B01DA01235B42079310E000230A201A000134A9
:4014C0006B6021783039092904D84243013452180123F6E7002B00D00792234E21780322300000F0D9F9002806D04023801B83402A68013413432B60217806221B48661C2A
:40150000297600F0C9F9002812D0194B002B06D10722059B073393430833059314E005AB00933A00134B2900029800E000BF07E005AB00933A000F4B2900029800F08AF81A
:401540000390039B013304D06B69039A9B186B6135E7BB890B985B0601D5012040421FB0F0BDC046301B0000361B00003A1B000000000000B9120000F7B5170001938A68DE
:401580000B6900900C00934200DA130022003B6043321278002A01D001333B6023689B0602D53B6802333B60062523681D401ED0230043331B785A1E9341226892061CD5D1
:4015C0003020E1184331087021005A1C45310978A2184332023311700FE022000123193201990098089EB047431C0ED00135E3683A689B1A9D42F0DBDAE722000199433243
:401600000098089DA847431C02D10120404220E006232068E1683A6803400025042B03D18D1AEB43DB171D40A3682269934201DD9B1AED180027BD420AD0220001231A32E9
:4016400001990098089EB047431CDED00137F2E70020FEBDF0B58BB006920A0043320793059004920A7E0C00109B6E2A00D1ABE011D8632A22D009D8002A00D1B5E0582A58
:4016800000D0C5E045310A70814A4FE0642A1DD0692A1BD0BCE0732A00D1AAE009D86F2A29D0702A00D0B3E0202209680A43226037E0752A1FD0782A33D0A9E00E001A68E9
:4016C0004236111D196013683370A4E021681A68080606D4490604D5111D19600023D55E02E0111D19601568002D3BDA2D23049A6D42137036E021681A68080606D4490651
:4017000004D51568111D1960ADB202E0111D196015685F4B227E039308276F2A1DD00A271BE022007821453211705A4A19680392081D226818600D68100602D4500600D566
:40174000ADB2D30702D520231A4322601027002D03D1202322689A4322602300002243331A7002E00A274A4B03936368A360002B09DB0422216891432160002D05D1049ECA
:40178000002B11D07BE0002D79D0049E28003900FFF742FC039B013E5B5C280033703900FFF7B4FB051EF1D1082F09D12368DB0706D563682269934202DC3023013E33705C
:4017C000049B9B1B23612BE009681A68080607D4490605D5111D19601368A28A1A8004E0111D1960136862691A600023049E236116E01A68111D19601668002162683000CC
:4018000000F04AF8002801D0801B6060636803E0260042363270012323610023049A1370079B09AA00932100069B0598FFF7A4FE431C02D10120404227E023693200069930
:401840000598079DA847431CF4D0236800259B070FD4099BE068984217DA180015E022000123193206990598079EB047431CE1D00135E368099A9B1A9D42F0DBE9E726002A
:40188000039B42361B7833708EE70BB0F0BDC046411B0000521B0000C9B28218904204D003788B4202D00130F8E70020704710B5884202D98B18984201D3002305E09B1AFC
:4018C000013A08D3995C8154FAE7934203D0CC5CC4540133F9E710BD70B50500002944D00C1F2368002B00DAE418280000F0D8F81E4A13681100002B02D16360146031E01E
:40190000A3420DD92268A018834203D118685B688218226063600C6024E0A24203D813005A68002AF9D11E689819A0420BD12168711858181960824214D1106852684118C3
:4019400019605A600EE0A04202D90C232B6009E021686018824203D1106852684118216062605C60280000F09CF870BDC8010020032370B5CD1C9D43083506000C2D01D29E
:401980000C2501E0002D01DBA94202D90C23336048E0300000F084F8234B1C681A002100002913D00B685B1B0DD40B2B02D90B60CC181EE08C4202D1636813601AE04B68D3
:4019C00063600C0016E00C004968E9E7174C2368002B03D1300000F051F820602900300000F04CF8431C18D00323C41C9C43A0420DD12560300000F054F8200007220B30D1
:401A0000231D9043C31A0ED05A42E2500BE0211A300000F033F8431CEBD10C233000336000F03FF8002070BDC8010020C4010020F8B506000C001500002904D11100FFF771
:401A400097FF040018E0002A03D1FFF745FF2C0012E000F027F885420ED929003000FFF787FF071E07D021002A00FFF7F1FB21003000FFF731FF3C002000F8BD002370B5F3
:401A8000064C050008002360FEF77AFC431C03D12368002B00D02B6070BDC046D8010020704770470B1F1A68101F002A04DA891804390B68D01804387047000000000000EC
:401AC0004465677265657300783D256420793D256400000000300F40000400400F4000041B011F0463026708C60CD602D801000007430F40030405060708090A0B0C0E0FDD
:401B0000101112131415161718191B1C1D1E1F2021222325262728292A2B2E2F3031323334350000000000000000000072734300232D302B2000686C4C0065666745464706
:401B4000003031323334353637383941424344454600303132333435363738396162636465660000F8B5C046F8BC08BC9E467047C5010000F9030000F8B5C046F8BC08BCAE
:401B80009E4670479D010000981B0000C0000020880000009800000000000000E0010020010000000000C05D80BB000030000000006CDC02F0000000040404000000000069
:401BC000000000000000000000000000000000000000000000000000000000002E1B000000000000000000000000000000000000000000000000000000000000000000009C
:401C000000000000000000000000000000000000000000000000000000000000E40000200000000000000000000000000000000000000000000000000000000000000000A0
:401C40000000000000000000000000000000000000000000000000000000000000000000000000000000000000000000000000000000000000000000000000000000000064
:401C80000000000000000000000000000000000000000000000000000000000000000000000000000000000000000000000000000000000000000000000000000000000024
:401CC00000000000000000000000000000000000000000000000000000000000000000000000000000000000000000000000000000000000000000000000000000000000E4
:401D000000000000000000000000000000000000000000000000000000000000000000000000000000000000000000000000000000000000000000000000000000000000A3
:020000040001F9
:0200000490303A
:0200000000F40A
:0200000490402A
:4000000000000000000000000000000000000000000000000000000000000000000000000000000000000000000000000000000000000000000000000000000000000000C0
:400040000000000000000000000000000000000000000000000000000000000000000000000000000000000000000000000000000000000000000000000000000000000080
:0200000490501A
:0C0000000002112D11A100011136129513
:0200000490600A
:0100000001FE
:00000001FF